{
  "contractName": "voteToken",
  "abi": [
    {
      "inputs": [],
      "payable": false,
      "stateMutability": "nonpayable",
      "type": "constructor"
    },
    {
      "anonymous": false,
      "inputs": [
        {
          "indexed": true,
          "internalType": "address",
          "name": "from",
          "type": "address"
        },
        {
          "indexed": true,
          "internalType": "address",
          "name": "to",
          "type": "address"
        },
        {
          "indexed": false,
          "internalType": "uint256",
          "name": "tokens",
          "type": "uint256"
        }
      ],
      "name": "Delegate",
      "type": "event"
    },
    {
      "constant": true,
      "inputs": [],
      "name": "creationBlock",
      "outputs": [
        {
          "internalType": "uint256",
          "name": "",
          "type": "uint256"
        }
      ],
      "payable": false,
      "stateMutability": "view",
      "type": "function"
    },
    {
      "constant": true,
      "inputs": [],
      "name": "decimals",
      "outputs": [
        {
          "internalType": "uint8",
          "name": "",
          "type": "uint8"
        }
      ],
      "payable": false,
      "stateMutability": "view",
      "type": "function"
    },
    {
      "constant": true,
      "inputs": [],
      "name": "name",
      "outputs": [
        {
          "internalType": "string",
          "name": "",
          "type": "string"
        }
      ],
      "payable": false,
      "stateMutability": "view",
      "type": "function"
    },
    {
      "constant": true,
      "inputs": [],
      "name": "owner",
      "outputs": [
        {
          "internalType": "address",
          "name": "",
          "type": "address"
        }
      ],
      "payable": false,
      "stateMutability": "view",
      "type": "function"
    },
    {
      "constant": true,
      "inputs": [],
      "name": "symbol",
      "outputs": [
        {
          "internalType": "string",
          "name": "",
          "type": "string"
        }
      ],
      "payable": false,
      "stateMutability": "view",
      "type": "function"
    },
    {
      "constant": true,
      "inputs": [],
      "name": "tokensGenerated",
      "outputs": [
        {
          "internalType": "bool",
          "name": "",
          "type": "bool"
        }
      ],
      "payable": false,
      "stateMutability": "view",
      "type": "function"
    },
    {
      "constant": true,
      "inputs": [],
      "name": "totalSupply",
      "outputs": [
        {
          "internalType": "uint256",
          "name": "",
          "type": "uint256"
        }
      ],
      "payable": false,
      "stateMutability": "view",
      "type": "function"
    },
    {
      "constant": false,
      "inputs": [
        {
          "internalType": "address",
          "name": "_to",
          "type": "address"
        },
        {
          "internalType": "uint256",
          "name": "_votePercentage",
          "type": "uint256"
        }
      ],
      "name": "delegate",
      "outputs": [
        {
          "internalType": "uint256",
          "name": "delegated",
          "type": "uint256"
        }
      ],
      "payable": false,
      "stateMutability": "nonpayable",
      "type": "function"
    },
    {
      "constant": true,
      "inputs": [
        {
          "internalType": "address",
          "name": "_owner",
          "type": "address"
        }
      ],
      "name": "balanceOf",
      "outputs": [
        {
          "internalType": "uint256",
          "name": "balance",
          "type": "uint256"
        }
      ],
      "payable": false,
      "stateMutability": "view",
      "type": "function"
    },
    {
      "constant": true,
      "inputs": [
        {
          "internalType": "address",
          "name": "_owner",
          "type": "address"
        }
      ],
      "name": "balanceOfDelegated",
      "outputs": [
        {
          "internalType": "uint256",
          "name": "balance",
          "type": "uint256"
        }
      ],
      "payable": false,
      "stateMutability": "view",
      "type": "function"
    },
    {
      "constant": true,
      "inputs": [
        {
          "internalType": "address",
          "name": "_to",
          "type": "address"
        }
      ],
      "name": "addressDelegatedOf",
      "outputs": [
        {
          "internalType": "uint256",
          "name": "balance",
          "type": "uint256"
        }
      ],
      "payable": false,
      "stateMutability": "view",
      "type": "function"
    },
    {
      "constant": true,
      "inputs": [
        {
          "internalType": "address",
          "name": "_owner",
          "type": "address"
        }
      ],
      "name": "votePowerOf",
      "outputs": [
        {
          "internalType": "uint256",
          "name": "balance",
          "type": "uint256"
        }
      ],
      "payable": false,
      "stateMutability": "view",
      "type": "function"
    },
    {
      "constant": true,
      "inputs": [
        {
          "internalType": "address",
          "name": "_owner",
          "type": "address"
        },
        {
          "internalType": "uint256",
          "name": "_blockNumber",
          "type": "uint256"
        }
      ],
      "name": "votePowerOfAt",
      "outputs": [
        {
          "internalType": "uint256",
          "name": "",
          "type": "uint256"
        }
      ],
      "payable": false,
      "stateMutability": "view",
      "type": "function"
    },
    {
      "constant": true,
      "inputs": [
        {
          "internalType": "address",
          "name": "_owner",
          "type": "address"
        },
        {
          "internalType": "uint256",
          "name": "_blockNumber",
          "type": "uint256"
        }
      ],
      "name": "balanceOfAt",
      "outputs": [
        {
          "internalType": "uint256",
          "name": "",
          "type": "uint256"
        }
      ],
      "payable": false,
      "stateMutability": "view",
      "type": "function"
    },
    {
      "constant": false,
      "inputs": [],
      "name": "generateTokens",
      "outputs": [
        {
          "internalType": "bool",
          "name": "success",
          "type": "bool"
        }
      ],
      "payable": false,
      "stateMutability": "nonpayable",
      "type": "function"
    }
  ],
  "bytecode": "0x60806040523480156200001157600080fd5b506040518060400160405280600a81526020017f566f746520546f6b656e00000000000000000000000000000000000000000000815250600090805190602001906200005f92919062000120565b506040518060400160405280600281526020017f565400000000000000000000000000000000000000000000000000000000000081525060019080519060200190620000ad92919062000120565b506000600260006101000a81548160ff021916908360ff160217905550606460038190555033600460006101000a81548173ffffffffffffffffffffffffffffffffffffffff021916908373ffffffffffffffffffffffffffffffffffffffff16021790555043600581905550620001cf565b828054600181600116156101000203166002900490600052602060002090601f016020900481019282601f106200016357805160ff191683800117855562000194565b8280016001018555821562000194579182015b828111156200019357825182559160200191906001019062000176565b5b509050620001a39190620001a7565b5090565b620001cc91905b80821115620001c8576000816000905550600101620001ae565b5090565b90565b61116c80620001df6000396000f3fe608060405234801561001057600080fd5b50600436106100f55760003560e01c80634ee2cd7e1161009757806392bfe6d81161006657806392bfe6d81461044b57806395d89b41146104ad57806398ff1ba114610530578063a5e3304814610552576100f5565b80634ee2cd7e146102ef5780635974d6271461035157806370a08231146103a95780638da5cb5b14610401576100f5565b806317634514116100d3578063176345141461023757806318160ddd14610255578063272531ba14610273578063313ce567146102cb576100f5565b8063026e402b146100fa57806306fdde031461015c578063142d1018146101df575b600080fd5b6101466004803603604081101561011057600080fd5b81019080803573ffffffffffffffffffffffffffffffffffffffff16906020019092919080359060200190929190505050610574565b6040518082815260200191505060405180910390f35b610164610a1e565b6040518080602001828103825283818151815260200191508051906020019080838360005b838110156101a4578082015181840152602081019050610189565b50505050905090810190601f1680156101d15780820380516001836020036101000a031916815260200191505b509250505060405180910390f35b610221600480360360208110156101f557600080fd5b81019080803573ffffffffffffffffffffffffffffffffffffffff169060200190929190505050610abc565b6040518082815260200191505060405180910390f35b61023f610acf565b6040518082815260200191505060405180910390f35b61025d610ad5565b6040518082815260200191505060405180910390f35b6102b56004803603602081101561028957600080fd5b81019080803573ffffffffffffffffffffffffffffffffffffffff169060200190929190505050610adb565b6040518082815260200191505060405180910390f35b6102d3610aee565b604051808260ff1660ff16815260200191505060405180910390f35b61033b6004803603604081101561030557600080fd5b81019080803573ffffffffffffffffffffffffffffffffffffffff16906020019092919080359060200190929190505050610b01565b6040518082815260200191505060405180910390f35b6103936004803603602081101561036757600080fd5b81019080803573ffffffffffffffffffffffffffffffffffffffff169060200190929190505050610b53565b6040518082815260200191505060405180910390f35b6103eb600480360360208110156103bf57600080fd5b81019080803573ffffffffffffffffffffffffffffffffffffffff169060200190929190505050610b66565b6040518082815260200191505060405180910390f35b610409610b79565b604051808273ffffffffffffffffffffffffffffffffffffffff1673ffffffffffffffffffffffffffffffffffffffff16815260200191505060405180910390f35b6104976004803603604081101561046157600080fd5b81019080803573ffffffffffffffffffffffffffffffffffffffff16906020019092919080359060200190929190505050610b9f565b6040518082815260200191505060405180910390f35b6104b5610be0565b6040518080602001828103825283818151815260200191508051906020019080838360005b838110156104f55780820151818401526020810190506104da565b50505050905090810190601f1680156105225780820380516001836020036101000a031916815260200191505b509250505060405180910390f35b610538610c7e565b604051808215151515815260200191505060405180910390f35b61055a610c91565b604051808215151515815260200191505060405180910390f35b600060648211156105ed576040517f08c379a000000000000000000000000000000000000000000000000000000000815260040180806020018281038252601e8152602001807f63616e6e6f742064656c6567617465206d6f7265207468616e2031303025000081525060200191505060405180910390fd5b8273ffffffffffffffffffffffffffffffffffffffff163373ffffffffffffffffffffffffffffffffffffffff16141561068f576040517f08c379a00000000000000000000000000000000000000000000000000000000081526004018080602001828103825260178152602001807f43616e6e6f742064656c656761746520746f2073656c6600000000000000000081525060200191505060405180910390fd5b600082141561078d5760006106a384610b53565b905061072b600860003373ffffffffffffffffffffffffffffffffffffffff1673ffffffffffffffffffffffffffffffffffffffff16815260200190815260200160002060008673ffffffffffffffffffffffffffffffffffffffff1673ffffffffffffffffffffffffffffffffffffffff1681526020019081526020016000206000610d7a565b60008161073786610abc565b039050610782600960008773ffffffffffffffffffffffffffffffffffffffff1673ffffffffffffffffffffffffffffffffffffffff16815260200190815260200160002082610d7a565b600092505050610a18565b600061079833610adb565b6107a133610b66565b039050600081116107fd576040517f08c379a00000000000000000000000000000000000000000000000000000000081526004018080602001828103825260238152602001806110f36023913960400191505060405180910390fd5b600060648285028161080b57fe5b0490506001811015610868576040517f08c379a00000000000000000000000000000000000000000000000000000000081526004018080602001828103825260228152602001806111166022913960400191505060405180910390fd5b60008161087433610adb565b0190506108bf600760003373ffffffffffffffffffffffffffffffffffffffff1673ffffffffffffffffffffffffffffffffffffffff16815260200190815260200160002082610d7a565b60006108ca87610b53565b83019050610953600860003373ffffffffffffffffffffffffffffffffffffffff1673ffffffffffffffffffffffffffffffffffffffff16815260200190815260200160002060008973ffffffffffffffffffffffffffffffffffffffff1673ffffffffffffffffffffffffffffffffffffffff16815260200190815260200160002082610d7a565b60008361095f89610abc565b0190506109aa600960008a73ffffffffffffffffffffffffffffffffffffffff1673ffffffffffffffffffffffffffffffffffffffff16815260200190815260200160002082610d7a565b8773ffffffffffffffffffffffffffffffffffffffff163373ffffffffffffffffffffffffffffffffffffffff167f510b11bb3f3c799b11307c01ab7db0d335683ef5b2da98f7697de744f465eacc866040518082815260200191505060405180910390a383955050505050505b92915050565b60008054600181600116156101000203166002900480601f016020809104026020016040519081016040528092919081815260200182805460018160011615610100020316600290048015610ab45780601f10610a8957610100808354040283529160200191610ab4565b820191906000526020600020905b815481529060010190602001808311610a9757829003601f168201915b505050505081565b6000610ac88243610b9f565b9050919050565b60055481565b60035481565b6000610ae78243610e31565b9050919050565b600260009054906101000a900460ff1681565b6000610b4b600660008573ffffffffffffffffffffffffffffffffffffffff1673ffffffffffffffffffffffffffffffffffffffff16815260200190815260200160002083610e83565b905092915050565b6000610b5f8243610fb0565b9050919050565b6000610b728243610b01565b9050919050565b600460009054906101000a900473ffffffffffffffffffffffffffffffffffffffff1681565b600080610bac8484610b01565b90506000610bba8585610e31565b90506000610bc8868661103f565b90506000818385030190508094505050505092915050565b60018054600181600116156101000203166002900480601f016020809104026020016040519081016040528092919081815260200182805460018160011615610100020316600290048015610c765780601f10610c4b57610100808354040283529160200191610c76565b820191906000526020600020905b815481529060010190602001808311610c5957829003601f168201915b505050505081565b600460149054906101000a900460ff1681565b6000600460009054906101000a900473ffffffffffffffffffffffffffffffffffffffff1673ffffffffffffffffffffffffffffffffffffffff163373ffffffffffffffffffffffffffffffffffffffff1614610ced57600080fd5b60011515600460149054906101000a900460ff1615151415610d0e57600080fd5b6001600460146101000a81548160ff021916908315150217905550610d73600660003373ffffffffffffffffffffffffffffffffffffffff1673ffffffffffffffffffffffffffffffffffffffff168152602001908152602001600020600354610d7a565b6001905090565b600082805490501480610db057504382600184805490500381548110610d9c57fe5b906000526020600020906002020160000154105b15610dfd57600082838054809190600101610dcb9190611091565b81548110610dd557fe5b9060005260206000209060020201905043816000018190555081816001018190555050610e2d565b600082600184805490500381548110610e1257fe5b90600052602060002090600202019050818160010181905550505b5050565b6000610e7b600760008573ffffffffffffffffffffffffffffffffffffffff1673ffffffffffffffffffffffffffffffffffffffff16815260200190815260200160002083610e83565b905092915050565b60008083805490501415610e9a5760009050610faa565b82600184805490500381548110610ead57fe5b9060005260206000209060020201600001548210610ef15782600184805490500381548110610ed857fe5b9060005260206000209060020201600101549050610faa565b82600081548110610efe57fe5b906000526020600020906002020160000154821015610f205760009050610faa565b60008090506000600185805490500390505b81811115610f87576000600260018484010181610f4b57fe5b04905084868281548110610f5b57fe5b90600052602060002090600202016000015411610f7a57809250610f81565b6001810391505b50610f32565b848281548110610f9357fe5b906000526020600020906002020160010154925050505b92915050565b6000611037600860003373ffffffffffffffffffffffffffffffffffffffff1673ffffffffffffffffffffffffffffffffffffffff16815260200190815260200160002060008573ffffffffffffffffffffffffffffffffffffffff1673ffffffffffffffffffffffffffffffffffffffff16815260200190815260200160002083610e83565b905092915050565b6000611089600960008573ffffffffffffffffffffffffffffffffffffffff1673ffffffffffffffffffffffffffffffffffffffff16815260200190815260200160002083610e83565b905092915050565b8154818355818111156110be576002028160020283600052602060002091820191016110bd91906110c3565b5b505050565b6110ef91905b808211156110eb576000808201600090556001820160009055506002016110c9565b5090565b9056fe596f75206d757374206861766520612062616c616e636520746f2064656c65676174656d7573742064656c65676174652061746c65617374203120766f746520706f776572a265627a7a72315820da1791ed41532c776f8c17a80669dc3db9e9a5a1569206a79553cd6ed77d6eec64736f6c63430005100032",
  "source": "pragma solidity ^0.5.3;\n\n\ncontract voteToken {\n\n    /**\n     * Boilerplate variables -\n     * used from ERC20 standard\n     */\n\n    string public name;\n    string public symbol;\n    uint8 public decimals;\n    uint256 public totalSupply;\n    address public owner;\n    bool public tokensGenerated;\n\n    // `creationBlock` is the block number that the Clone Token was created\n    uint256 public creationBlock;\n\n    /**\n     * Stuct used to track values\n     * in different blocks\n     */\n    struct  Checkpoint {\n\n        // `fromBlock` is the block number that the value was generated from\n        uint256 fromBlock;\n\n        // `value` is the amount of tokens at a specific block number\n        uint256 value;\n    }\n\n\n    // `balances` is the map that tracks the balance of each address, in this\n    //  contract when the balance changes the block number that the change\n    //  occurred is also included in the map\n    mapping (address => Checkpoint[]) balances;\n\n    // `delegatedBalances` is the map that tracks how much each address has delegated to other addresses, in this\n    //  contract when the balance changes the block number that the change\n    //  occurred is also included in the map\n    mapping(address => Checkpoint[]) delegatedBalances;\n\n    // `addressDelegatedPower` is the map that tracks the total amount given from one address to another, in this\n    //  contract when the balance changes the block number that the change\n    //  occurred is also included in the map\n    mapping(address => mapping(address => Checkpoint[])) addressDelegatedPower;\n\n    // `addressDelegatedPower` is the map that tracks the total vote power of an address, in this\n    //  contract when the balance changes the block number that the change\n    //  occurred is also included in the map\n    mapping(address => Checkpoint[]) votePowerAllowed;\n\n    // `Delegate` is the event that emits new votepower transfers\n    event Delegate(address indexed from, address indexed to, uint tokens);\n\n\n\n    constructor() public {\n        name = \"Vote Token\";\n        symbol = \"VT\";\n        decimals = 0;\n        totalSupply = 100;\n        owner = msg.sender;\n        creationBlock = block.number;\n    }\n\n    /**\n     *function 'delegate' transfers vote power to other addresses and updates mappings\n     * Param(address to send, percentage to transfer)\n     */\n    function delegate(address _to, uint _votePercentage) public returns(uint delegated) {\n        //Must revert - cannot delegate more than 100% of holdings\n        require(_votePercentage<= 100, \"cannot delegate more than 100%\");\n        //Must revert - cannot delegate to self\n        require(msg.sender!=_to, \"Cannot delegate to self\");\n\n        //if delegate percentage is 0\n        //remove the power the msg.sender delegated\n        if(_votePercentage == 0) {\n            //update _to vote power\n            //set vote power provided by msg.sender to 0\n            uint _currentDelegateAmount = addressDelegatedOf(_to);\n            updateValueAtNow(addressDelegatedPower[msg.sender][_to], 0);\n            uint _currentVotePower = votePowerOf(_to) - _currentDelegateAmount;\n            updateValueAtNow(votePowerAllowed[_to], _currentVotePower);\n            return 0;\n        }else{\n\n        //The msg.sender cannot delegate from a 0 balance\n        uint _currentBalance = balanceOf(msg.sender) - balanceOfDelegated(msg.sender);\n        require(_currentBalance > 0, \"You must have a balance to delegate\");\n\n        //The delegated votepower must be more than 1\n        uint _percentconv = (_votePercentage * _currentBalance) / 100;\n        require(_percentconv>= 1, \"must delegate atleast 1 vote power\");\n\n        //update the balance of how much msg.sender has delegated\n        uint _adddelegateBalance = balanceOfDelegated(msg.sender) + _percentconv;\n        updateValueAtNow(delegatedBalances[msg.sender], _adddelegateBalance);\n        //update the balance of _to delegated balance from msg.sender\n        uint _addressDelegate = _percentconv + addressDelegatedOf(_to);\n        updateValueAtNow(addressDelegatedPower[msg.sender][_to], _addressDelegate);\n        //update the balance of _to vote power\n        uint _addToVotePower = votePowerOf(_to) + _percentconv;\n        updateValueAtNow(votePowerAllowed[_to], _addToVotePower);\n        emit Delegate(msg.sender, _to, _percentconv);\n        return _percentconv;\n\n        }\n\n    }\n\n\n    /// @param _owner The address that's balance is being requested\n    /// @return The balance of `_owner` at the current block\n    function balanceOf(address _owner) public view returns (uint256 balance) {\n        return balanceOfAt(_owner, block.number);\n    }\n\n    function balanceOfDelegated(address _owner) public view returns (uint256 balance) {\n        return balanceOfAtDelegated(_owner, block.number);\n    }\n\n    function addressDelegatedOf(address _to) public view returns (uint256 balance) {\n        return balanceOfAtAddressDelegated(_to, block.number);\n    }\n\n    function votePowerOf(address _owner) public view returns (uint256 balance) {\n        return votePowerOfAt(_owner, block.number);\n    }\n\n\n    /// @dev Queries the balance of `_owner` at a specific `_blockNumber`\n    /// @param _owner The address from which the balance will be retrieved\n    /// @param _blockNumber The block number when the balance is queried\n    /// @return The balance at `_blockNumber`\n    function votePowerOfAt(address _owner, uint _blockNumber) public view\n    returns(uint) {\n        uint _delegator = balanceOfAt(_owner, _blockNumber);\n        uint _delegatedTotal = balanceOfAtDelegated(_owner, _blockNumber);\n        uint _delegateeAllowedTotal = balanceOfAtAllowed(_owner, _blockNumber);\n        uint total = _delegator - _delegatedTotal +  _delegateeAllowedTotal;\n        return total;\n    }\n\n    function balanceOfAt(address _owner, uint _blockNumber) public view\n        returns (uint) {\n            return getValueAt(balances[_owner], _blockNumber);\n\n    }\n\n    function balanceOfAtDelegated(address _owner, uint _blockNumber)  view internal\n    returns (uint) {\n        return getValueAt(delegatedBalances[_owner], _blockNumber);\n\n    }\n\n    function balanceOfAtAllowed(address _owner, uint _blockNumber)  view internal\n    returns (uint) {\n        return getValueAt(votePowerAllowed[_owner], _blockNumber);\n\n    }\n\n    function balanceOfAtAddressDelegated(address _to, uint _blockNumber)  view internal\n    returns (uint) {\n        return getValueAt(addressDelegatedPower[msg.sender][_to], _blockNumber);\n\n    }\n\n\n    // @notice Generates `_amount` tokens that are assigned to `_owner`\n    // @param owner The address that will be assigned the new tokens\n    // @param totalsupply The quantity of tokens generated\n    // @return True if the tokens are generated correctly\n    function generateTokens() public returns (bool success) {\n        require(msg.sender == owner);\n        require(tokensGenerated != true);\n        tokensGenerated = true;\n        updateValueAtNow(balances[msg.sender], totalSupply);\n        return true;\n    }\n\n    //helper functions\n    /// @dev `getValueAt` retrieves the number of tokens at a given block number\n    /// @param checkpoints The history of values being queried\n    /// @param _block The block number to retrieve the value at\n    /// @return The number of tokens being queried\n    function getValueAt(Checkpoint[] storage checkpoints, uint _block\n    ) view internal returns (uint) {\n        if (checkpoints.length == 0) return 0;\n\n        // Shortcut for the actual value\n        if (_block >= checkpoints[checkpoints.length-1].fromBlock)\n            return checkpoints[checkpoints.length-1].value;\n        if (_block < checkpoints[0].fromBlock) return 0;\n\n        // Binary search of the value in the array\n        uint min = 0;\n        uint max = checkpoints.length-1;\n        while (max > min) {\n            uint mid = (max + min + 1)/ 2;\n            if (checkpoints[mid].fromBlock<=_block) {\n                min = mid;\n            } else {\n                max = mid-1;\n            }\n        }\n        return checkpoints[min].value;\n    }\n\n    /// @dev `updateValueAtNow` used to update the `balances` map and the\n    ///  `totalSupplyHistory`\n    /// @param checkpoints The history of data being updated\n    /// @param _value The new number of tokens\n    function updateValueAtNow(Checkpoint[] storage checkpoints, uint _value\n    ) internal  {\n        if ((checkpoints.length == 0)\n        || (checkpoints[checkpoints.length -1].fromBlock < block.number)) {\n               Checkpoint storage newCheckPoint = checkpoints[ checkpoints.length++ ];\n               newCheckPoint.fromBlock =  uint256(block.number);\n               newCheckPoint.value = uint256(_value);\n           } else {\n               Checkpoint storage oldCheckPoint = checkpoints[checkpoints.length-1];\n               oldCheckPoint.value = uint256(_value);\n           }\n    }\n\n}\n",
  "sourcePath": "C:\\Users\\cdancy\\Documents\\Solidity Projects\\voteToken\\contracts\\voteToken.sol",
  "compiler": {
    "name": "solc",
    "version": "0.5.16+commit.9c3226ce.Emscripten.clang"
  },
  "schemaVersion": "3.1.0",
  "updatedAt": "2021-02-15T14:12:11.568Z",
  "devdoc": {
    "methods": {
      "balanceOf(address)": {
        "params": {
          "_owner": "The address that's balance is being requested"
        },
        "return": "The balance of `_owner` at the current block"
      },
      "votePowerOfAt(address,uint256)": {
        "details": "Queries the balance of `_owner` at a specific `_blockNumber`",
        "params": {
          "_blockNumber": "The block number when the balance is queried",
          "_owner": "The address from which the balance will be retrieved"
        },
        "return": "The balance at `_blockNumber`"
      }
    }
  },
  "userdoc": {
    "methods": {
      "delegate(address,uint256)": {
        "notice": "unction 'delegate' transfers vote power to other addresses and updates mappings Param(address to send, percentage to transfer)"
      }
    }
  }
}